{
  "abi": [
    {
      "inputs": [
        {
          "internalType": "address",
          "name": "_insurer",
          "type": "address"
        },
        {
          "internalType": "uint96",
          "name": "_protocolInsuredFee",
          "type": "uint96"
        }
      ],
      "stateMutability": "nonpayable",
      "type": "constructor"
    },
    {
      "inputs": [],
      "name": "BiYearClaimMadeAlready",
      "type": "error"
    },
    {
      "inputs": [],
      "name": "EndOFMonthNotReached",
      "type": "error"
    },
    {
      "inputs": [],
      "name": "InsufficientBal",
      "type": "error"
    },
    {
      "inputs": [],
      "name": "NotProtocolInsuredFee",
      "type": "error"
    },
    {
      "inputs": [],
      "name": "TooSoonToClaim",
      "type": "error"
    },
    {
      "inputs": [],
      "name": "ZeroAmount",
      "type": "error"
    },
    {
      "inputs": [
        {
          "internalType": "uint96",
          "name": "_value",
          "type": "uint96"
        }
      ],
      "name": "claimInsuranceDividends",
      "outputs": [],
      "stateMutability": "nonpayable",
      "type": "function"
    },
    {
      "inputs": [],
      "name": "insureMonthly",
      "outputs": [],
      "stateMutability": "payable",
      "type": "function"
    },
    {
      "inputs": [
        {
          "internalType": "address",
          "name": "",
          "type": "address"
        }
      ],
      "name": "insurerExist",
      "outputs": [
        {
          "internalType": "bool",
          "name": "",
          "type": "bool"
        }
      ],
      "stateMutability": "view",
      "type": "function"
    },
    {
      "inputs": [
        {
          "internalType": "address",
          "name": "",
          "type": "address"
        }
      ],
      "name": "insurers",
      "outputs": [
        {
          "internalType": "uint256",
          "name": "elapsedTime",
          "type": "uint256"
        },
        {
          "internalType": "uint256",
          "name": "lastClaimed",
          "type": "uint256"
        },
        {
          "internalType": "uint256",
          "name": "InsuredTimes",
          "type": "uint256"
        }
      ],
      "stateMutability": "view",
      "type": "function"
    },
    {
      "inputs": [],
      "name": "returnInsurerInfo",
      "outputs": [
        {
          "internalType": "uint256",
          "name": "elapsedTime",
          "type": "uint256"
        },
        {
          "internalType": "uint256",
          "name": "lastClaimed",
          "type": "uint256"
        },
        {
          "internalType": "uint256",
          "name": "InsuredTimes",
          "type": "uint256"
        },
        {
          "internalType": "uint256",
          "name": "balance",
          "type": "uint256"
        }
      ],
      "stateMutability": "view",
      "type": "function"
    },
    {
      "stateMutability": "payable",
      "type": "receive"
    }
  ],
  "bytecode": {
    "object": "0x608060405234801561001057600080fd5b5060405161055538038061055583398101604081905261002f91610089565b600080546001600160a01b039384166001600160a01b031990911681178255600180546001600160601b03909416600160a01b0293909416929092178355908152600360205260409020805460ff191690911790556100db565b6000806040838503121561009c57600080fd5b82516001600160a01b03811681146100b357600080fd5b60208401519092506001600160601b03811681146100d057600080fd5b809150509250929050565b61046b806100ea6000396000f3fe60806040526004361061004e5760003560e01c8063047e01791461005a578063b15eb31b1461009f578063c8f7d6be146100a9578063de45aeef146100f8578063e9a0f0dc1461014e57600080fd5b3661005557005b600080fd5b34801561006657600080fd5b5061008a610075366004610394565b60036020526000908152604090205460ff1681565b60405190151581526020015b60405180910390f35b6100a761016e565b005b3480156100b557600080fd5b50600080546001600160a01b0316815260026020526040902080546001909101548147604080519485526020850193909352918301526060820152608001610096565b34801561010457600080fd5b50610133610113366004610394565b600260208190526000918252604090912080546001820154919092015483565b60408051938452602084019290925290820152606001610096565b34801561015a57600080fd5b506100a76101693660046103c4565b610226565b600154600160a01b90046001600160601b031634146101a057604051632409aec760e01b815260040160405180910390fd5b600080546001600160a01b031681526002602052604090205442116101d857604051635da35c1560e11b815260040160405180910390fd5b6101e54262278d00610403565b600080546001600160a01b039081168252600260208190526040808420949094558254909116825291812090910180549161021f8361041c565b9190505550565b6000546001600160a01b031633146102745760405162461bcd60e51b815260206004820152600d60248201526c139bdd0814195c9b5a5d1d1959609a1b604482015260640160405180910390fd5b33600090815260026020819052604090912081015410156102a85760405163624dd24760e01b815260040160405180910390fd5b6102b54262eff100610403565b33600090815260026020526040902060010154106102e6576040516328f164d160e11b815260040160405180910390fd5b600080546001600160a01b0316815260026020819052604082200180549161030d8361041c565b9190505550806001600160601b031647101561033c57604051631ea447d760e31b815260040160405180910390fd5b600080546001600160a01b031681526002602052604080822042600191909101555133916001600160601b03841680156108fc02929091818181858888f19350505050158015610390573d6000803e3d6000fd5b5050565b6000602082840312156103a657600080fd5b81356001600160a01b03811681146103bd57600080fd5b9392505050565b6000602082840312156103d657600080fd5b81356001600160601b03811681146103bd57600080fd5b634e487b7160e01b600052601160045260246000fd5b80820180821115610416576104166103ed565b92915050565b60006001820161042e5761042e6103ed565b506001019056fea2646970667358221220762676e5f5308501e36feb39a31a2f332ee53a346593cee79509ef35907455e664736f6c63430008140033",
    "linkReferences": {}
  },
  "methodIdentifiers": {
    "claimInsuranceDividends(uint96)": "e9a0f0dc",
    "insureMonthly()": "b15eb31b",
    "insurerExist(address)": "047e0179",
    "insurers(address)": "de45aeef",
    "returnInsurerInfo()": "c8f7d6be"
  },
  "id": 25
}