{
  "abi": [
    {
      "inputs": [
        {
          "internalType": "uint256",
          "name": "_collateralAmount",
          "type": "uint256"
        },
        {
          "internalType": "uint256",
          "name": "_loanAmount",
          "type": "uint256"
        },
        {
          "internalType": "address",
          "name": "_insurer",
          "type": "address"
        },
        {
          "internalType": "address",
          "name": "_insuredFactory",
          "type": "address"
        },
        {
          "internalType": "address",
          "name": "_loanTokenAddress",
          "type": "address"
        },
        {
          "internalType": "bool",
          "name": "_collateralDropPercentType",
          "type": "bool"
        }
      ],
      "stateMutability": "nonpayable",
      "type": "constructor"
    },
    {
      "inputs": [],
      "name": "InvalidRepaymentAmount",
      "type": "error"
    },
    {
      "inputs": [],
      "name": "LoanPaidBackAlready",
      "type": "error"
    },
    {
      "inputs": [],
      "name": "NotPermitted",
      "type": "error"
    },
    {
      "anonymous": false,
      "inputs": [
        {
          "indexed": false,
          "internalType": "address",
          "name": "insurer",
          "type": "address"
        },
        {
          "indexed": false,
          "internalType": "uint256",
          "name": "amount",
          "type": "uint256"
        }
      ],
      "name": "LoanPayed",
      "type": "event"
    },
    {
      "inputs": [],
      "name": "collateralAmount",
      "outputs": [
        {
          "internalType": "uint256",
          "name": "",
          "type": "uint256"
        }
      ],
      "stateMutability": "view",
      "type": "function"
    },
    {
      "inputs": [
        {
          "internalType": "uint256",
          "name": "currentPrice",
          "type": "uint256"
        }
      ],
      "name": "hasCollateralPriceDroppedByTenPercent",
      "outputs": [
        {
          "internalType": "bool",
          "name": "",
          "type": "bool"
        }
      ],
      "stateMutability": "nonpayable",
      "type": "function"
    },
    {
      "inputs": [],
      "name": "insurer",
      "outputs": [
        {
          "internalType": "address",
          "name": "",
          "type": "address"
        }
      ],
      "stateMutability": "view",
      "type": "function"
    },
    {
      "inputs": [],
      "name": "lastCollateralPercentCheckTimestamp",
      "outputs": [
        {
          "internalType": "uint256",
          "name": "",
          "type": "uint256"
        }
      ],
      "stateMutability": "view",
      "type": "function"
    },
    {
      "inputs": [],
      "name": "loanAmount",
      "outputs": [
        {
          "internalType": "uint256",
          "name": "",
          "type": "uint256"
        }
      ],
      "stateMutability": "view",
      "type": "function"
    },
    {
      "inputs": [
        {
          "internalType": "uint256",
          "name": "_repayment",
          "type": "uint256"
        }
      ],
      "name": "repayLoan",
      "outputs": [],
      "stateMutability": "nonpayable",
      "type": "function"
    },
    {
      "stateMutability": "payable",
      "type": "receive"
    }
  ],
  "bytecode": {
    "object": "0x608060405234801561001057600080fd5b5060405161077538038061077583398101604081905261002f916100a9565b600180546001600160a01b03199081166001600160a01b039687161790915560039690965560049490945560008054861692841692909217909155600280549094169116179091556007805460ff1916911515919091179055610118565b80516001600160a01b03811681146100a457600080fd5b919050565b60008060008060008060c087890312156100c257600080fd5b86519550602087015194506100d96040880161008d565b93506100e76060880161008d565b92506100f56080880161008d565b915060a0870151801515811461010a57600080fd5b809150509295509295509295565b61064e806101276000396000f3fe6080604052600436106100595760003560e01c8063827d95341461006557806392d09ceb1461009a578063977dec1a146100be5780639d585f7f146100d4578063ab7b1c89146100ea578063dbc837c51461010c57600080fd5b3661006057005b600080fd5b34801561007157600080fd5b5061008561008036600461055b565b610144565b60405190151581526020015b60405180910390f35b3480156100a657600080fd5b506100b060035481565b604051908152602001610091565b3480156100ca57600080fd5b506100b060065481565b3480156100e057600080fd5b506100b060045481565b3480156100f657600080fd5b5061010a61010536600461055b565b6101f8565b005b34801561011857600080fd5b5060015461012c906001600160a01b031681565b6040516001600160a01b039091168152602001610091565b600061015362278d004261058a565b6006541061019e5760405162461bcd60e51b815260206004820152601460248201527313db9b1e481b5bdb9d1a1b1e4818da1958dad95960621b604482015260640160405180910390fd5b6000683635c9adc5dea000006107086004546101ba91906105a3565b6101c491906105ba565b90506000816101d3858261058a565b6101de9060646105a3565b6101e891906105ba565b42600655600a1115949350505050565b806004541080610209575080600454115b1561022757604051630636b6d560e11b815260040160405180910390fd5b60055460ff16151560010361024f5760405163941a0dc960e01b815260040160405180910390fd5b60075460ff1615156001036103d657610269610708610144565b15610371578060046000828254610280919061058a565b90915550506005805460ff191660011790556002546000546001600160a01b03918216916323b872dd913391166102b56104f4565b6040516001600160e01b031960e086901b1681526001600160a01b03938416600482015292909116602483015260448201526064015b6020604051808303816000875af115801561030a573d6000803e3d6000fd5b505050506040513d601f19601f8201168201806040525081019061032e91906105dc565b506001546003546040516001600160a01b039092169181156108fc0291906000818181858888f1935050505015801561036b573d6000803e3d6000fd5b506104b8565b8060046000828254610383919061058a565b90915550506005805460ff191660011790556002546000546040516323b872dd60e01b81523360048201526001600160a01b039182166024820152604481018490529116906323b872dd906064016102eb565b80600460008282546103e8919061058a565b90915550506005805460ff191660011790556002546000546040516323b872dd60e01b81523360048201526001600160a01b039182166024820152604481018490529116906323b872dd906064016020604051808303816000875af1158015610455573d6000803e3d6000fd5b505050506040513d601f19601f8201168201806040525081019061047991906105dc565b506001546003546040516001600160a01b039092169181156108fc0291906000818181858888f193505050501580156104b6573d6000803e3d6000fd5b505b60408051338152602081018390527f2348ce456766a06226fbe75c6f2c74d3165139a5644dd3390817b55600f3eb92910160405180910390a150565b60075460009060ff161515600114801561051d57506006546105199062278d00610605565b4210155b15610542576064600454600a61053391906105a3565b61053d91906105ba565b905090565b6040516339218f3b60e01b815260040160405180910390fd5b60006020828403121561056d57600080fd5b5035919050565b634e487b7160e01b600052601160045260246000fd5b8181038181111561059d5761059d610574565b92915050565b808202811582820484141761059d5761059d610574565b6000826105d757634e487b7160e01b600052601260045260246000fd5b500490565b6000602082840312156105ee57600080fd5b815180151581146105fe57600080fd5b9392505050565b8082018082111561059d5761059d61057456fea26469706673582212207ec87b7cb13849da1c2e36bf07ffad7e7939e2aee7a6c1bd45d75341f777969264736f6c63430008140033",
    "linkReferences": {}
  },
  "methodIdentifiers": {
    "collateralAmount()": "92d09ceb",
    "hasCollateralPriceDroppedByTenPercent(uint256)": "827d9534",
    "insurer()": "dbc837c5",
    "lastCollateralPercentCheckTimestamp()": "977dec1a",
    "loanAmount()": "9d585f7f",
    "repayLoan(uint256)": "ab7b1c89"
  },
  "id": 24
}