{
  "abi": [
    {
      "inputs": [
        {
          "internalType": "address",
          "name": "_generalLoanToken",
          "type": "address"
        }
      ],
      "stateMutability": "nonpayable",
      "type": "constructor"
    },
    {
      "anonymous": false,
      "inputs": [
        {
          "indexed": false,
          "internalType": "address",
          "name": "insurer",
          "type": "address"
        },
        {
          "indexed": false,
          "internalType": "uint256",
          "name": "desiredLoan",
          "type": "uint256"
        },
        {
          "indexed": false,
          "internalType": "address",
          "name": "insurance",
          "type": "address"
        }
      ],
      "name": "InsuredCollateralInstance",
      "type": "event"
    },
    {
      "anonymous": false,
      "inputs": [
        {
          "indexed": false,
          "internalType": "address",
          "name": "insurer",
          "type": "address"
        },
        {
          "indexed": false,
          "internalType": "uint256",
          "name": "protocolInsuredFee",
          "type": "uint256"
        },
        {
          "indexed": false,
          "internalType": "address",
          "name": "insurance",
          "type": "address"
        }
      ],
      "name": "InsuredCryptoInstance",
      "type": "event"
    },
    {
      "inputs": [
        {
          "internalType": "bool",
          "name": "collateralPriceReduceType",
          "type": "bool"
        }
      ],
      "name": "createInsuredCollateral",
      "outputs": [
        {
          "internalType": "contract InsuredCollateral",
          "name": "_insuredCollateralInstance",
          "type": "address"
        }
      ],
      "stateMutability": "payable",
      "type": "function"
    },
    {
      "inputs": [
        {
          "internalType": "uint96",
          "name": "protocolInsuredFee",
          "type": "uint96"
        }
      ],
      "name": "createInsuredCrypto",
      "outputs": [
        {
          "internalType": "contract InsuranceCrypto",
          "name": "_insuredCrypto",
          "type": "address"
        }
      ],
      "stateMutability": "nonpayable",
      "type": "function"
    },
    {
      "inputs": [],
      "name": "getColateralPools",
      "outputs": [
        {
          "internalType": "address[]",
          "name": "colateralPoolAddresses",
          "type": "address[]"
        }
      ],
      "stateMutability": "pure",
      "type": "function"
    },
    {
      "inputs": [],
      "name": "getCryptoPools",
      "outputs": [
        {
          "internalType": "address[]",
          "name": "colateralPoolAddresses",
          "type": "address[]"
        }
      ],
      "stateMutability": "pure",
      "type": "function"
    }
  ],
  "bytecode": {
    "object": "0x608060405234801561001057600080fd5b5060405161133a38038061133a83398101604081905261002f91610054565b600480546001600160a01b0319166001600160a01b0392909216919091179055610084565b60006020828403121561006657600080fd5b81516001600160a01b038116811461007d57600080fd5b9392505050565b6112a7806100936000396000f3fe60806040526004361061003e5760003560e01c8062da026414610043578063043c4603146100805780631070aea714610093578063e6fc6ed514610093575b600080fd5b34801561004f57600080fd5b5061006361005e366004610492565b6100af565b6040516001600160a01b0390911681526020015b60405180910390f35b61006361008e3660046104d3565b610209565b34801561009f57600080fd5b50606060405161007791906104f0565b3360009081526020819052604081205460ff16156101065760405162461bcd60e51b815260206004820152600f60248201526e105b1c9958591e4810dc99585d1959608a1b60448201526064015b60405180910390fd5b338260405161011490610478565b6001600160a01b0390921682526001600160601b03166020820152604001604051809103906000f08015801561014e573d6000803e3d6000fd5b50336000818152602081815260408083208054600160ff1990911681179091556002805491820181559093527f405787fa12a823e0f2b7631cc41b3ba8828b3321ca811111fa75cd3aa3bb5ace90920180546001600160a01b0319166001600160a01b03861690811790915582519384526001600160601b03871691840191909152908201529091507f9f7ff1415ce1c99b396f9d677e3de87310222d7d5ebc4ad0af2502f4dcd5d9c49060600160405180910390a1919050565b3360009081526020819052604081205460ff161561025b5760405162461bcd60e51b815260206004820152600f60248201526e105b1c9958591e4810dc99585d1959608a1b60448201526064016100fd565b6000670de0b6b3a76400006102723461070861053d565b61027c9190610568565b9050600061070861029683683635c9adc5dea0000061053d565b6102a09190610568565b905034813330600460009054906101000a90046001600160a01b0316886040516102c990610485565b95865260208601949094526001600160a01b0392831660408601529082166060850152166080830152151560a082015260c001604051809103906000f080158015610318573d6000803e3d6000fd5b50336000818152600160208190526040808320805460ff1916831790556002805492830181559092527f405787fa12a823e0f2b7631cc41b3ba8828b3321ca811111fa75cd3aa3bb5ace0180546001600160a01b0319166001600160a01b038581169190911790915560048054925163a9059cbb60e01b815290810193909352602483018590529295509091169063a9059cbb906044016020604051808303816000875af11580156103ce573d6000803e3d6000fd5b505050506040513d601f19601f820116820180604052508101906103f2919061058a565b506040516001600160a01b038416903480156108fc02916000818181858888f19350505050158015610428573d6000803e3d6000fd5b5060408051338152602081018390526001600160a01b0385168183015290517f9f7ff1415ce1c99b396f9d677e3de87310222d7d5ebc4ad0af2502f4dcd5d9c49181900360600190a15050919050565b610555806105a883390190565b61077580610afd83390190565b6000602082840312156104a457600080fd5b81356001600160601b03811681146104bb57600080fd5b9392505050565b80151581146104d057600080fd5b50565b6000602082840312156104e557600080fd5b81356104bb816104c2565b6020808252825182820181905260009190848201906040850190845b818110156105315783516001600160a01b03168352928401929184019160010161050c565b50909695505050505050565b808202811582820484141761056257634e487b7160e01b600052601160045260246000fd5b92915050565b60008261058557634e487b7160e01b600052601260045260246000fd5b500490565b60006020828403121561059c57600080fd5b81516104bb816104c256fe608060405234801561001057600080fd5b5060405161055538038061055583398101604081905261002f91610089565b600080546001600160a01b039384166001600160a01b031990911681178255600180546001600160601b03909416600160a01b0293909416929092178355908152600360205260409020805460ff191690911790556100db565b6000806040838503121561009c57600080fd5b82516001600160a01b03811681146100b357600080fd5b60208401519092506001600160601b03811681146100d057600080fd5b809150509250929050565b61046b806100ea6000396000f3fe60806040526004361061004e5760003560e01c8063047e01791461005a578063b15eb31b1461009f578063c8f7d6be146100a9578063de45aeef146100f8578063e9a0f0dc1461014e57600080fd5b3661005557005b600080fd5b34801561006657600080fd5b5061008a610075366004610394565b60036020526000908152604090205460ff1681565b60405190151581526020015b60405180910390f35b6100a761016e565b005b3480156100b557600080fd5b50600080546001600160a01b0316815260026020526040902080546001909101548147604080519485526020850193909352918301526060820152608001610096565b34801561010457600080fd5b50610133610113366004610394565b600260208190526000918252604090912080546001820154919092015483565b60408051938452602084019290925290820152606001610096565b34801561015a57600080fd5b506100a76101693660046103c4565b610226565b600154600160a01b90046001600160601b031634146101a057604051632409aec760e01b815260040160405180910390fd5b600080546001600160a01b031681526002602052604090205442116101d857604051635da35c1560e11b815260040160405180910390fd5b6101e54262278d00610403565b600080546001600160a01b039081168252600260208190526040808420949094558254909116825291812090910180549161021f8361041c565b9190505550565b6000546001600160a01b031633146102745760405162461bcd60e51b815260206004820152600d60248201526c139bdd0814195c9b5a5d1d1959609a1b604482015260640160405180910390fd5b33600090815260026020819052604090912081015410156102a85760405163624dd24760e01b815260040160405180910390fd5b6102b54262eff100610403565b33600090815260026020526040902060010154106102e6576040516328f164d160e11b815260040160405180910390fd5b600080546001600160a01b0316815260026020819052604082200180549161030d8361041c565b9190505550806001600160601b031647101561033c57604051631ea447d760e31b815260040160405180910390fd5b600080546001600160a01b031681526002602052604080822042600191909101555133916001600160601b03841680156108fc02929091818181858888f19350505050158015610390573d6000803e3d6000fd5b5050565b6000602082840312156103a657600080fd5b81356001600160a01b03811681146103bd57600080fd5b9392505050565b6000602082840312156103d657600080fd5b81356001600160601b03811681146103bd57600080fd5b634e487b7160e01b600052601160045260246000fd5b80820180821115610416576104166103ed565b92915050565b60006001820161042e5761042e6103ed565b506001019056fea2646970667358221220762676e5f5308501e36feb39a31a2f332ee53a346593cee79509ef35907455e664736f6c63430008140033608060405234801561001057600080fd5b5060405161077538038061077583398101604081905261002f916100a9565b600180546001600160a01b03199081166001600160a01b039687161790915560039690965560049490945560008054861692841692909217909155600280549094169116179091556007805460ff1916911515919091179055610118565b80516001600160a01b03811681146100a457600080fd5b919050565b60008060008060008060c087890312156100c257600080fd5b86519550602087015194506100d96040880161008d565b93506100e76060880161008d565b92506100f56080880161008d565b915060a0870151801515811461010a57600080fd5b809150509295509295509295565b61064e806101276000396000f3fe6080604052600436106100595760003560e01c8063827d95341461006557806392d09ceb1461009a578063977dec1a146100be5780639d585f7f146100d4578063ab7b1c89146100ea578063dbc837c51461010c57600080fd5b3661006057005b600080fd5b34801561007157600080fd5b5061008561008036600461055b565b610144565b60405190151581526020015b60405180910390f35b3480156100a657600080fd5b506100b060035481565b604051908152602001610091565b3480156100ca57600080fd5b506100b060065481565b3480156100e057600080fd5b506100b060045481565b3480156100f657600080fd5b5061010a61010536600461055b565b6101f8565b005b34801561011857600080fd5b5060015461012c906001600160a01b031681565b6040516001600160a01b039091168152602001610091565b600061015362278d004261058a565b6006541061019e5760405162461bcd60e51b815260206004820152601460248201527313db9b1e481b5bdb9d1a1b1e4818da1958dad95960621b604482015260640160405180910390fd5b6000683635c9adc5dea000006107086004546101ba91906105a3565b6101c491906105ba565b90506000816101d3858261058a565b6101de9060646105a3565b6101e891906105ba565b42600655600a1115949350505050565b806004541080610209575080600454115b1561022757604051630636b6d560e11b815260040160405180910390fd5b60055460ff16151560010361024f5760405163941a0dc960e01b815260040160405180910390fd5b60075460ff1615156001036103d657610269610708610144565b15610371578060046000828254610280919061058a565b90915550506005805460ff191660011790556002546000546001600160a01b03918216916323b872dd913391166102b56104f4565b6040516001600160e01b031960e086901b1681526001600160a01b03938416600482015292909116602483015260448201526064015b6020604051808303816000875af115801561030a573d6000803e3d6000fd5b505050506040513d601f19601f8201168201806040525081019061032e91906105dc565b506001546003546040516001600160a01b039092169181156108fc0291906000818181858888f1935050505015801561036b573d6000803e3d6000fd5b506104b8565b8060046000828254610383919061058a565b90915550506005805460ff191660011790556002546000546040516323b872dd60e01b81523360048201526001600160a01b039182166024820152604481018490529116906323b872dd906064016102eb565b80600460008282546103e8919061058a565b90915550506005805460ff191660011790556002546000546040516323b872dd60e01b81523360048201526001600160a01b039182166024820152604481018490529116906323b872dd906064016020604051808303816000875af1158015610455573d6000803e3d6000fd5b505050506040513d601f19601f8201168201806040525081019061047991906105dc565b506001546003546040516001600160a01b039092169181156108fc0291906000818181858888f193505050501580156104b6573d6000803e3d6000fd5b505b60408051338152602081018390527f2348ce456766a06226fbe75c6f2c74d3165139a5644dd3390817b55600f3eb92910160405180910390a150565b60075460009060ff161515600114801561051d57506006546105199062278d00610605565b4210155b15610542576064600454600a61053391906105a3565b61053d91906105ba565b905090565b6040516339218f3b60e01b815260040160405180910390fd5b60006020828403121561056d57600080fd5b5035919050565b634e487b7160e01b600052601160045260246000fd5b8181038181111561059d5761059d610574565b92915050565b808202811582820484141761059d5761059d610574565b6000826105d757634e487b7160e01b600052601260045260246000fd5b500490565b6000602082840312156105ee57600080fd5b815180151581146105fe57600080fd5b9392505050565b8082018082111561059d5761059d61057456fea26469706673582212207ec87b7cb13849da1c2e36bf07ffad7e7939e2aee7a6c1bd45d75341f777969264736f6c63430008140033a26469706673582212200fbdbdb3d99af0f6cd3a754198ff170d017d48a519fec78f7053d300e8aeeff064736f6c63430008140033",
    "linkReferences": {}
  },
  "methodIdentifiers": {
    "createInsuredCollateral(bool)": "043c4603",
    "createInsuredCrypto(uint96)": "00da0264",
    "getColateralPools()": "e6fc6ed5",
    "getCryptoPools()": "1070aea7"
  },
  "id": 26
}